:0200000270008C
:104000007C7F002071430700594307005B43070092
:104010005D4307005F4307006143070000000000A5
:10402000000000000000000000000000094407003C
:104030006543070000000000674307007D4C070050
:10404000219607006B430700BD5507006B4307002F
:104050006B4307006B4307006B4307006B4307008C
:104060006B4307006B4307006B4307006B4307007C
:104070006B4307006B4307006B4307006B4307006C
:104080006B430700ED6C07006B4307006B430700B1
:10409000156D07006B430700414907006B4307009C
:1040A0006B4307006B4307006B4307006B4307003C
:1040B0006B4307006B430700000000000000000096
:1040C0006B4307006B4307006B4307006B4307001C
:1040D0006B4307006B4307006B43070000000000C1
:1040E00000000000000000000000000000000000D0
:1040F00000000000000000000000000000000000C0
:1041000000000000000000000000000000000000AF
:10411000000000000000000000000000000000009F
:10412000000000000000000000000000000000008F
:10413000000000000000000000000000000000007F
:10414000000000000000000000000000000000006F
:10415000000000000000000000000000000000005F
:10416000000000000000000000000000000000004F
:10417000000000000000000000000000000000003F
:10418000000000000000000000000000000000002F
:10419000000000000000000000000000000000001F
:1041A000000000000000000000000000000000000F
:1041B00000000000000000000000000000000000FF
:1041C00000000000000000000000000000000000EF
:1041D00000000000000000000000000000000000DF
:1041E00000000000000000000000000000000000CF
:1041F00000000000000000000000000000000000BF
:10420000354936480A1A02D0072291438D4634496F
:1042100034480A1A06D00722914381F30988022202
:1042200082F3148830483149314A00F043F831486C
:104230003149324A00F03EF831483249324A00F002
:1042400039F832483249334A00F034F832483349B9
:10425000334A00F02FF833483349344A00F02AF843
:1042600033483449344A00F025F8344834490022B0
:1042700000F02BF833483449002200F026F8334888
:104280003349091A082903DB002202600430016067
:104290001F482049884205D00268043003B4904783
:1042A00003BCF7E700208646EC4600200021294A9F
:1042B0009047FEE7884207D0521A05D003780130B4
:1042C0000B700131013AF9D17047884202D0027077
:1042D0000130FAE7704700007C7F00207C7B0020E3
:1042E000807F0020807F0020009F0700003000209A
:1042F00024300020A4430700A4430700509E070079
:10430000009F07000030002000300020509E070072
:10431000509E0700509E0700509E0700509E0700C9
:10432000509E0700509E0700509E0700009F070008
:10433000249F070024300020243000202430002057
:10434000785A0020785A0020785A0020785A0020A5
:10435000785E002069460700FEE7FEE7FEE7FEE71D
:10436000FEE7FEE7FEE7FEE7FEE7FEE700F002B845
:10437000FFF7FCBF08484FF0070188438546074810
:1043800080470748016841F470010160BFF34F8F17
:10439000BFF36F8FFFF734BF7C7F00209999070030
:0443A00088ED00E0C4
:1043A40000B310B50146104B1A1A984211D03B2A9B
:1043B4000BD83C333C310022501C3C2A09D811F85C
:1043C400012903F801290246F6E73C22064805F0D4
:1043D400B1FC054C00223C21204601F097FAA0874D
:1043E400002010BD0E207047807F002010B50C46C1
:1043F40010B101230B6010BD0868FFF7D1FF2060E6
:10440400F9E700006FF00203064A9E4502D1EFF37C
:10441400098101E0EFF308818869A0F102000078C6
:10442400104700BFF1430700F8B1F8B50446114D39
:1044340000223C21284601F069FAAF8F874216D149
:1044440005F1300C2E460FCE20606160A260E3605F
:10445400354610346645F5D107CD20606160A26011
:104464000137044B9F870020F8BD0E2070470B20B6
:10447400FAE700BF807F0020BFF34F8F0549CA6869
:1044840002F4E062044B1343CB60BFF34F8F00BFD1
:10449400FDE700BF00ED00E00400FA054BDF7047C4
:1044A40010DF704711DF704713DF704718DF704764
:1044B40060DF704769DF704761DF704708B5044B00
:1044C4001B6813F0010F00D000BEFFF7D5FF00BF3B
:1044D400F0ED00E0014B1878704700BF2530002054
:1044E40000B585B000230193029303930223009344
:1044F4006846FFF7DBFF05B05DF804FB00B587B045
:10450400002876D14FF4E820FFF7CEFF002873D1BE
:10451400464B1B680593464905A8FFF7C1FF0028D1
:104524006DD1444B93F816335A09EC23134113F01D
:10453400010F08D0404B9B68002B63D03E4A1368A0
:1045440043F4800313603D4B04930C22002101A823
:1045540005F019FC01238DF804308DF80530002393
:104564008DF806308DF80730049A01A94020FFF732
:10457400A1FF00284BD10C22002101A805F003FC67
:104584009DF8043043F001038DF80430049A01A926
:10459400A020FFF78FFF00283CD10C22002101A8A6
:1045A40005F0F1FB01238DF80430F723ADF8063054
:1045B400049A01A92320FFF77DFF70BB0C22002180
:1045C40001A805F0E0FB01238DF804308DF80630D6
:1045D4000623ADF80830049A01A92020FFF76AFFEA
:1045E400F0B904A8FFF764FFE8B9002007B05DF84C
:1045F40004FBFFF775FF85E702F0B0FC88E702F0E3
:10460400ADFC8EE70B4B4FF480021A609BE702F07F
:10461400A5FCB0E702F0A2FCBFE702F09FFCCDE7E7
:1046240002F09CFCDDE702F099FCDEE7509E0700F7
:10463400C144070000E100E01857002000300020CA
:1046440008B5032000F022FB4FF4DA2005F070F8DF
:1046540043F20803186805F06BF8042000F016FB19
:1046640008BD0000F8B54FF08043D3F81C55B12DB8
:1046740014BF00260126D3F81C35B12B1FD04FF0F0
:104684008043D3F81C35A82B17D00023824A13701B
:104694004FF08042D2F81C25E3B94E2A52D04FF095
:1046A4008043D3F81C35572B4ED07C4B1B681A68BB
:1046B4007B4B9A4205D000230DE00123E6E701235A
:1046C400E4E74FF08043D3F8003413F0010F3DD1F9
:1046D400002300E001231C4623B14FF08043002255
:1046E400C3F81C256F4B40F20A22C3F840256E4BD9
:1046F4001B68B3F5E82F2BD100F0EEF903F0D8FBDB
:10470400002000F0C3FA03F039FC28BB002C36D09B
:104714000124614B1B78002B38D001225E4B1A70A8
:1047240043F20803186803F0EDFA074600283BD06B
:10473400002C75D1594B1B681A685C4B9A4271D096
:10474400002332E00123C6E70123C4E70123C2E7C3
:10475400002002F003FCCFE7052000F097FA03F0F5
:1047640021FC30B903F046FC30B9062000F08EFA83
:10477400CCE702F0F3FBF5E702F0F0FBF5E70E20DF
:1047840000F04AF90028C4D00124C2E70E2000F04A
:1047940043F908B90022C1E7002000F03DF908B947
:1047A4000022BBE70122B9E700231A4623B9404B94
:1047B4001968404B994237D012B90CB9002F35D142
:1047C4003B4B1A683B4B9A423AD0344B1B6800224D
:1047D4001A6004B9B7B9304B1C78002C35D00820C6
:1047E40000F054FAB5F1B10018BF0120FFF786FEBE
:1047F40026460021284B187803F074FB60BB264B37
:104804001B7863BB0E2000F007F958B300F0B8F929
:1048140043F20803186803F075FA50BBFFF72CFE47
:104824000023C2E70123C0E70124C5E71B4B1B6833
:104834001B4A1A604FF47A71002003F053FBBFE760
:10484400164B1B68194A1A60C3E7022000F01EFACF
:10485400012000F01BFACCE702F080FBCFE7FFF762
:1048640021FECFE700F0D8F80028CFD0FFF7E8FE0C
:10487400CCE703F083FB0028D0D14EB1074B1B6873
:1048840000221A6043F20803186803F05FFBC5E7CF
:10489400FFF726FEF2E700BF25300020003000209D
:1048A400D51A5A0000A00040141000107E67E54E8F
:1048B400006202007CB0EE8710B5FEB04FF4FA73CC
:1048C400ADF802300DF1020101A8FFF7F5FD044631
:1048D40040B9BDF80430102B07D0112B0CD001A81F
:1048E40004F0B2F820467EB010BD074B01221A70C6
:1048F400072000F0CBF9F2E7034B00221A700820DE
:1049040000F0C4F9EBE700BF2430002010B582B0FA
:1049140001A8FFF7C3FD044610B1204602B010BD44
:10492400019803F0C3F8F8E708B5FFF7C5FF0528B9
:10493400FBD1FFF7EBFF0528F7D108BD08B5034A03
:104944000021084601F01CFD08BD00BF2D490700E9
:104954000B2937D938B50446084615466218D2B231
:104964002389043304EB4303991C521AD2B2012A5B
:104974002AD92044884229D3184805F0DBF9238832
:10498400522B25D115F0030F06D062884AF6AF5397
:104994009A421FD1002300E0002322899A420FD9B2
:1049A4001A1D04EB420252884FF6FE718A4213D05C
:1049B400013343F20C0109888A42EED1002006E05B
:1049C4000B2004E009207047092000E0092038BDCD
:1049D4000F20FCE70F20FAE70020F8E7283000203A
:1049E40008B5002200F092FF054A1378527843EA92
:1049F4000223984201D1002008BD0B20FCE700BF30
:104A04002830002000F5E0704FF0A043014A43F83D
:104A1400202070470C0003004FF0A043D3F810355A
:104A2400C34013F0010F0CBF012000207047002386
:104A34008360C0F800354FF0FF32C0F86025C0F83D
:104A44006425C0F86825C0F86C25C0F8043540F228
:104A5400FF32C0F80825C0F80C35C0F81035C0F88E
:104A64001435C0F82035C0F82435704770B4184B9D
:104A74000022C3F800254FF0A04501F5E074032699
:104A840045F82460012404FA01F6C5F80C6500F524
:104A9400AC7043F82010C3F80425FF21C3F80815AF
:104AA4000421C3F80C150220C3F81005C3F814251B
:104AB4000848C3F82005C3F82415C3F82825C3F80B
:104AC4002C25C3F80045C3F8102170BC704700BF03
:104AD40000C001402832002038B54FF08043012443
:104AE400DC600025C3F818559C600E20FFF78AFF90
:104AF4002846FFF787FF4FF4C850174B23439847C6
:104B04000A212846FFF7B2FF0D212046FFF7AEFF2A
:104B1400124A1E21082001F00DFCD0B902F0FCF865
:104B24000F4BE02283F823200E4B1B680E4AA2FB96
:104B340003239B09013BB3F1807F09D20B4A5360E5
:104B4400074BE02183F823100023936007231360AD
:104B540038BD02F003FAE1E7609E0700343000201C
:104B640000ED00E020300020D34D621010E000E0A2
:104B740008B50248FFF75BFF08BD00BF00C0014055
:104B840010B50024124B1C60FFF7F2FF114B4FF4D9
:104B94000032C3F8802003F1C04303F53C534FF4C3
:104BA4008032C3F84823C3F8082301225A609A606C
:104BB4004FF08043DA6023461F2B08DC03F5E071D5
:104BC4004FF0A042022042F821000133F4E710BD67
:104BD40010E000E000E100E082B0074B23F8101081
:104BE400064B00221A601B680193019B044B0122AF
:104BF4001A6002B0704700BF2832002010C1014083
:104C040008C0014010B5194B1C68194B1A68B4FB55
:104C1400F2F302FB13435008B3EB520F00D9D31A3B
:104C240003EB8301C3EB0111B1FBF0F189B2C1F1D4
:104C3400FF0189B20020FFF7CFFF0E4B1A68B4FBC7
:104C4400F2F302FB13435008B3EB520F00D9D31A0B
:104C540003EBC301C3EB0111B1FBF0F189B2C1F164
:104C6400FF0189B20120FFF7B7FF10BD24320020F5
:104C7400303200203832002008B5034A136801336B
:104C84001360FFF7BFFF08BD24320020214B1968D1
:104C940008283CD8DFE800F01605163B3B1E252CFF
:104CA40033001D4B40F6B8321A6000224FF47F43A4
:104CB40003F0103323F080531AB9994201D0154AF6
:104CC40013607047144B4FF496721A6000224FF42D
:104CD4007F03EDE7104B64221A600B464FF47F020A
:104CE400E6E70D4B40F6B8321A600B460022DFE7C8
:104CF4000A4B40F6B8321A600022FF23D8E7074B6C
:104D04004FF496721A6000224FF0FF13D0E70B465F
:104D14000022CDE734320020303200203832002027
:104D24000F4B1968B1F1FF3F19D010B504464FF489
:104D340080520C4804F0CBFF38B15CB94FF4806268
:104D44000849074B186804F00FFD054B4FF0FF327C
:104D54001A6010BD024B186804F0EAFCEEE77047D5
:104D6400043000203C320020F8B504460E461746B5
:104D740020F47F6525F00F050C4A1268AA4208D179
:104D8400C4F30B043A4631460948204404F0D2FFE8
:104D9400F8BD1846FFF7C4FF044B1D604FF4805262
:104DA4002946034804F0C6FFEAE700BF04300020A8
:104DB4003C320020002814DB4901C9B200F16043F1
:104DC40003F5614383F8001300F01F024009012337
:104DD4009340074A00F1600142F8213042F8203044
:104DE400704700F00F024901C9B2024B9954EBE736
:104DF40000E100E014ED00E0F0B587B00579874BE1
:104E040003EB4513DB7E002B40F006810446487F0C
:104E1400824B03EB451318770B68B3F1FF3F0CD0BB
:104E2400012000FA03F34FF0A040C0F808350B68E6
:104E340003F5E073032640F823604B68B3F1FF3FAA
:104E440006D003F5E0734FF0A040002640F823603D
:104E5400087D4E7D2779714B03EB47131B7F002B95
:104E640000F0858023688F69C3F824752368304374
:104E7400C3F86C0523680E684868C3F80C65C3F86A
:104E840014050B7D012B4ED064486B0100EB4516D5
:104E940072600E69C650002A2DD0097F227900EB7A
:104EA40042131B7F002B00F0998022680023C2F874
:104EB4001031D2F810210292029A2268C2F82031ED
:104EC400D2F820210392039A2268C2F82431D2F83E
:104ED40024210492049A2268C2F84431D2F844315D
:104EE4000593059B23684E4AC3F80423206840F3C6
:104EF4000730FFF75FFF2279484B03EB42131B7F18
:104F0400002B00F0848023680822C3F80025434B5B
:104F140003EB45130020D875187698750122DA76CC
:104F2400987607B0F0BD8B68B3F1FF3F06D003F568
:104F3400E0734FF0A040002640F82360CB68B3F143
:104F4400FF3F0CD0012000FA03F34FF0A040C0F85B
:104F54000835CB6803F5E073032640F82360236823
:104F6400CE688868C3F80865C3F810058CE7236821
:104F74008F69C3F8247523683043C3F86C0523682C
:104F840008684E68C3F81465C3F80C050B7D012B43
:104F94007FF47AAF8B68B3F1FF3F06D003F5E0737B
:104FA4004FF0A040002640F82360CB68B3F1FF3FE8
:104FB4000CD0012000FA03F34FF0A040C0F80835EC
:104FC400CB6803F5E073032640F823602368CE68BA
:104FD4008868C3F80865C3F8100555E723680022FC
:104FE400C3F81C21D3F81C310093009B2368C3F839
:104FF4004421D3F844310193019B2368094AC3F83F
:105004000423206840F30730FFF7D4FE73E72368D6
:105014000422C3F800257AE7082082E73C420020F6
:105024001003020080000200F0B402794E4B03EB3F
:1050340042131B7F002B6BD003680021C3F80015BB
:10504400494B03EB42135B68BBB10179464B03EB5D
:1050540041131B7F002B60D003684449C3F8081335
:10506400016841F30733C1F304315B09012404FAF5
:1050740001F120333E4C44F8231001793A4B03EB01
:1050840041131B7F002B5AD00668D6F80C55D6F86E
:105094001445D6F80835D6F810154FF0FF37C6F882
:1050A4000C75C6F814750068C0F80875C0F810755A
:1050B400B5F1FF3F06D005F5E0754FF0A04002269C
:1050C40040F82560B4F1FF3F06D004F5E0744FF0DA
:1050D400A040022540F82450B1F1FF3F06D001F56D
:1050E400E0714FF0A040022440F82140B3F1FF3FAB
:1050F40006D003F5E0734FF0A041022041F82300ED
:10510400194B03EB42130022DA765A60F0BC704765
:1051140003680021C3F8001592E703681549C3F832
:105124000813016841F30733C1F304315B09012417
:1051340004FA01F120330E4C44F823109DE706686D
:10514400D6F80C55D6F81445D6F80835D6F8101507
:105154004FF0FF37C6F81475C6F80C750068C0F830
:105164000875C0F81075A3E73C4200201003020044
:1051740000E100E0840202000279044B03EB4213D5
:10518400987D003818BF0120704700BF3C420020C2
:10519400F0B587B004460E4617460579614B03EB1C
:1051A40045131B7F2BB101F06043B3F1005F40F066
:1051B400B5802046FFF7E0FF002840F0B180594B4E
:1051C40003EB4515AF75AE600022AA82227903EB8A
:1051D40042131B7F002B31D0114623680022C3F8F1
:1051E4002021D3F820310193019B2368C3F858216F
:1051F400D3F858310293029B22684A4B03EB4113C4
:105204009D68987DC2F84455C2F84805226801207B
:1052140090605B6813B1002007B0F0BD2368D3F839
:105224002021D3F858010AB90028F7D000B10F2083
:105234003C4B03EB411100238B75EDE72179226888
:105244000023C2F81C31D2F81C210492049A22686B
:10525400012090602568C5F81C31D5F81C310593F0
:10526400059B304B03EB411398689A8A92B2865C93
:105274009A8A92B2013292B29A82C5F81C655B682E
:105284004BB10020C8E7274B03EB41139B8A9BB229
:10529400B3F5807F15D1234B03EB41139A8A92B265
:1052A4009B7D9A4222D22268D2F81C31002BEAD18B
:1052B4001C4B03EB41139B8A9BB2B3F5807FF2D165
:1052C400E1E70023C2F81C31D2F81C310393039B9D
:1052D400144D05EB4115AB8A9BB2C65CAB8A9BB2FD
:1052E40001339BB2AB82C2F81C65D4E70D4B03EBD0
:1052F40041139B8A9BB2B3F5807F0DD02368D3F80A
:105304001C21002AFAD00122DA600020054B03EBAD
:10531400411100238B757FE70F20F7E710207BE70F
:10532400112079E73C420020F0B488B003460079AC
:105334008C4C04EB4014257F2DB101F06044B4F192
:10534400005F40F00D81874C04EB401466682EB179
:10535400ADB11C684FF40475C4F80853814C04EBD8
:105364004014E47D2CB37F4C04EB4014247E64B9D8
:105374007C4C04EB401001610276012522E01C689C
:105384004FF40175C4F80853E8E756B11979754A22
:1053940002EB4112127F32B11B684FF40472C3F85E
:1053A4000423112039E01B684FF40172C3F804236D
:1053B400F7E76C4C04EB4010C275C16000244476DE
:1053C400047625461C79674800EB4410007F0028CA
:1053D40044D018680024C0F81041D0F8100101909E
:1053E40001981868C0F84441D0F84401029002982A
:1053F4001868C0F83415C0F838258DB91A68012129
:1054040011601D79574A02EB4512526882B11B683C
:105414004FF40472C3F80423002008B0F0BC7047B2
:105424001968D1F8002242F02002C1F80022E8E70E
:105434001A68D2F81041D2F84411D2F8240114B9F0
:1054440009B90028F4D0474B03EB45150023EB754D
:1054540000B103200029E0D00F20DEE71C79414A87
:1054640002EB4412927E92B98DB91A680021C2F8F7
:105474002411D2F824210392039A1A68C2F808115D
:10548400D2F808210492049A1A6801211160354A5D
:1054940002EB4412526832B11B684FF40172C3F834
:1054A40004230020B9E71A680021C2F84411D2F895
:1054B40044210792079A24E0002D39D1002837D1DE
:1054C400284901EB4411C97D49B30021C2F80811F0
:1054D400D2F8081105910599224901EB4411CF68CE
:1054E4004E7EF6B2D2F81825BA554A7E0132D2B2AF
:1054F4004A761C4A02EB4412D17D527ED2B29142CA
:1055040016D91A68D2F82451D2F80811D2F84401F5
:105514000029D1D10028CFD1002DF2D0CCE7C2F898
:105524000811D2F8081106910699D2F81825E0E777
:105534000C4A02EB44120021D1756DB970B9094AC5
:1055440002EB4414A27E1AB11B6801221A6064E7BC
:105554001B6801225A6060E703205EE70F205CE7C6
:1055640010205AE73C4200200279124B03EB42130D
:105574001B7FF3B90F4B03EB4212937ECBB982B07E
:1055840003680022C3F82421D3F824310093009B3C
:105594000368C3F80821D3F808310193019B036819
:1055A40001221A600179034B03EB41139A7602B08E
:1055B400704770473C42002010B58EB0904B1B7F63
:1055C400002B00F0A1808F4BD3F82431002B5BD04B
:1055D4008C4B0022C3F82421D3F8241102910299A0
:1055E40002218DF82810D3F88014C3F880140D918B
:1055F400D3F83C358DF83030814BD9680B91DA758E
:105604001A765A6819680AA890477E4BD3F8443131
:10561400D3B17C4B0022C3F84421D3F84431019325
:10562400019B774BDB7D7BB1754BDA75754AD2F8FC
:105634003C15DA6801208DF828008DF830100B92A3
:105644005A6819680AA890476E4BD3F82031CBB139
:105654006C4B0022C3F82021D3F820310093009B27
:10566400674B9B7D73B1674BD3F84C358DF828207D
:105674008DF83030624B99680B919A755A681968A5
:105684000AA890470EB010BD5E4BD3F81031002B22
:10569400BBD05C4B0022C3F81021D3F81021039235
:1056A400039AD3F83C35DBB2554AD27D9342ACD150
:1056B400534A127ECAB1524AD4685248D0F80012F2
:1056C40021F02001C0F80012117ED1751169D1605A
:1056D4000021117601218DF828108DF830300B94BB
:1056E400536811680AA898478FE7454A0021D17585
:1056F400D16801208DF828008DF830300B91536863
:1057040011680AA8984780E73E4BD3F8043313F492
:10571400007F79D03B4BD3F82431002B74D0394B24
:105724000022C3F82421D3F824210992099A4FF4C2
:105734000172C3F80823324B9B7E13B9314B01220B
:105744005A6002238DF828302E4AD2F88034C2F8E9
:1057540080340D932A4BDA7D8DF83020DA680B9271
:105764000022DA751A765A6819680AA89047254BF8
:10577400D3F81C31D3B1224A938A9BB2927D9342CF
:1057840080F0A6801F490023C1F81C31D1F81C31D8
:105794000693069B1A4A9068938A9BB2C05C938ACC
:1057A4009BB201339BB29382C1F81C05154BD3F80D
:1057B4004431002B3FF466AF124B0022C3F844215E
:1057C400D3F844310493049B0D4B9B7E13B10D4BD2
:1057D40001221A600A4BDB7D002B3FF453AF084BC8
:1057E4000022DA75597EDA6801208DF828008DF8D8
:1057F40030100B925A6819680AA8904742E700BF14
:105804003C420020002000403E4BD3F8043313F008
:10581400040FACD03B4BD3F80831002BA7D03A4B44
:10582400DB7D002B2ED037490023C1F80831D1F895
:1058340008310793079B344AD068537EDBB2D1F812
:105844001815C154537E0133DBB253762E4BDA7DE7
:105854005B7EDBB29A428AD12B4B1A7EEAB1D968BD
:10586400587EDA751A69DA6000221A765A760122AD
:105874008DF828208DF830000B915A6819680AA811
:10588400904774E71F4B0022C3F80821D3F808217E
:105894000892089AD3F81835D8E71B4B9B7E13B9A6
:1058A400184B01225A60174B4FF40172C3F80823B6
:1058B400154B0022DA75597EDA6801208DF828002C
:1058C4008DF830100B925A6819680AA890474EE771
:1058D4000C4B0022C3F81C21D3F81C310593059B03
:1058E400094B9B7D002B3FF461AF8DF828208DF888
:1058F4003030054B99680B919A755A6819680AA853
:10590400904753E7002000403C42002010B4044676
:10591400BAB1108800228A4216D2030243EA102345
:1059240098B2A35C4340C3F30310434083EA0333B8
:1059340018B29BB25B0103F4FF53434098B20132A7
:10594400E9E74FF6FF70E5E75DF8044B70470000A8
:105954000020064B1870064B064A1A6008225A604B
:105964009860D86018615861986170475C42002063
:1059740040550020604200200020704719B310B445
:105984000C4600230B60134B5A68F2B1B0F5167F36
:105994001DD8013A5A60DA680132DA6018681A6967
:1059A4004FF4177101FB02012160012101FA02F099
:1059B400996901439961013202F007021A610020DA
:1059C4005DF8044B70470E2070470420F8E70C2064
:1059D400F6E700BF405500201C4B9A68002A33D0DC
:1059E40030B45D69AA1A02F00702134617490C681D
:1059F4004FF4177101FB0341814206D0013303F0D8
:105A040007039D42F2D1102011E0012101FA03F0B5
:105A14000E4CA1694140A161002008E00B49013A04
:105A24008A604A6801324A605A1C02F00702074938
:105A34008C69012101FA02F2144203D1034A9268EB
:105A4400002AEBD130BC7047042070474055002039
:105A5400064A1369013B03F0070312684FF41771F8
:105A640001FB0323C3F8580200207047405500206F
:105A7400D8B130B40446D1B10F4BDA68CAB1013A97
:105A8400DA609A6801329A601D685A694FF4177097
:105A940000FB02502060D0F858020860013202F086
:105AA40007025A61002030BC70470E2070470E2058
:105AB400F9E70420F7E700BF405500200C4B1B68B2
:105AC400A3B110B584B00B4A14686CB100228DF8F0
:105AD40004200949086802900393054B1A600A6080
:105AE40004AB13E90700A04704B010BD704700BF22
:105AF400645500206855002074550020DC2812D01D
:105B0400DD281CD010B5C02807D0114B1968114AE4
:105B140013685C1C1460C85401E0FFF7CFFF0E4B00
:105B24000E4A1A6010BD0A4B19680A4A1368581CB9
:105B34001060C022CA54084B084A1A607047044BCC
:105B44001968044A1368581C1060DB22CA54F2E72F
:105B5400745500206455002008300020655B070060
:105B640010B5C02809D0DB280AD0074B1968074AAA
:105B740013685C1C1460C85401E0FFF79FFF10BD5C
:105B8400034B044A1A60FAE7745500206455002058
:105B940008300020015B0700C02800D07047024B8A
:105BA400024A1A60FAE700BF08300020655B07006C
:105BB4000E4B1B683BB10E4A11680E4A12689142A3
:105BC40001D20020704710B584B00B4A146854B158
:105BD40002228DF804200293054B1B68039304AB47
:105BE40013E90700A047012004B010BD745500203C
:105BF40064550020605500206855002008B5064B08
:105C04001B68064A1268D05C01F08CF918B9024A84
:105C140013680133136008BD6C55002078550020CB
:105C240008B5C02001F07EF928B9034B1B6813B9ED
:105C3400024B034A1A6008BD6C5500200C3000204A
:105C4400015C070000B585B00BE01F4B1A681F4BC1
:105C54009A4219D01C4B1B689847042830D011284D
:105C64002ED01B4B1A681B4B1B689A4210D21A4B3E
:105C74001B68174A12689A5CC02AE6D0144A126854
:105C84009B5CDB2BE6D1E0E70F4B144A1A60E1E79B
:105C94000D4B134A1A60FFF7C3FF88B9114B012259
:105CA4001A70114B1B685BB18DF804200A4A126804
:105CB4000292074A1268039204AA12E9070098475D
:105CC40005B05DF804FB00BF0C300020015C070048
:105CD4006C55002070550020785500202D5D07007C
:105CE400255C07005C5500206855002010B504466B
:105CF4000378032B03D02378042B07D010BD084B63
:105D04001B78022BF7D1FFF79DFFF4E7FFF750FF55
:105D14000028F3D1034B1B6820799847EEE700BFB6
:105D24005C5500200830002008B5DB2001F0FAF8AB
:105D340010B9024B024A1A6008BD00BF0C300020A3
:105D4400495D070008B50E4B1B680E4A1268D35C08
:105D5400C02B03D0DB2B0ED0042008BDDC2001F0C7
:105D6400E1F80028F9D1064A136801331360064BA1
:105D7400064A1A60F1E7DD2001F0D4F8F1E700BF2C
:105D84006C550020785500200C300020015C070081
:105D940030B587B06C46094D0FCD0FC495E80300AC
:105DA40084E803000723064A0021684601F06AF8E4
:105DB40010B9044B01221A7007B030BD689E070069
:105DC400F15C07005C550020014B1860002070470F
:105DD4006855002008B5044B1B780BB1002008BDA2
:105DE400FFF7D6FFFBE700BF5C55002008B5034B67
:105DF40000221A7001F0AAF808BD00BF5C5500200B
:105E0400C8B10F4B1B78012B03D0022B15D10420F2
:105E1400704710B500240B4B1C600B4B19600B4BE7
:105E24001860074B02221A70094B0A4A1A60FFF7DE
:105E340009FF204610BD102070470820704700BF9E
:105E44005C5500206C5500207055002078550020CA
:105E54000C300020255C0700054B1860054B1960C9
:105E64000020054B1860054B054A1A60704700BFB7
:105E7400745500206055002064550020083000202F
:105E84009D5B070002784378134480781844C0B2BD
:105E94004042C0B27047042926D938B50446037875
:105EA40013F0400F22D013F0800F21D0427802F07B
:105EB4000F000E281ED11344A2781344E278134431
:105EC40013F0FF0F01D0002011E08D1E002229469F
:105ED4002046FFF71BFD6219635D527843EA0223F3
:105EE400984209D1012002E000207047002038BD0B
:105EF4000020FCE70020FAE70020F8E710B5084B83
:105F04001B78DB00074C237000236370A3702046CA
:105F1400FFF7B8FFE07004212046FFF771FF10BDC2
:105F2400A45500207C55002038B504460D46FFF7E3
:105F3400B2FF00284BD0237803F00703294A1268E4
:105F4400D1B299420AD04FF41671274B1868FFF763
:105F540083FF002838D1FFF7D1FF38BD013202F0AA
:105F64000702204B1A60FFF7C9FF204B01221A7069
:105F74002846FFF76DFDC8B91B494FF41670FFF7AB
:105F8400FDFC044608B1042813D1B4B9164B1868B3
:105F9400ACB94FF41671FFF75FFF90B9144B1B684F
:105FA400002BDAD04FF000009847D6E700F0D6FF78
:105FB400E2E7002000F0D2FFE7E70E48E8E705211A
:105FC400E9E700F0CBFFE9E700F0C8FFC3E74FF4CF
:105FD4001671054B1868FFF73FFF0028BDD000F08D
:105FE400BDFFBAE7A4550020CC550020A0550020E1
:105FF400B4550020AC55002008B52E4B1B78012B5E
:1060040014D0022B23D003B108BD0028FCD12A48A8
:1060140000F0E6FE38B9294B1B68002BF4D0284A5F
:1060240010789847F0E700F099FFF4E70128EBD1E6
:10603400244B19680631244B1868FFF7E1FE18B9A0
:10604400022000F0C1F8DFE700F088FFF8E702283B
:106054001AD003280ED00028D6D100221B4B1A6078
:1060640041F67F21144800F09DFE0028CCD000F0BA
:1060740075FFC9E7164A1368013303F00703136079
:10608400002000F0A1F8BFE7104B1B68052B0AD0D5
:1060940001330E4A13600B4B196806310A4B18681A
:1060A400FFF7AEFEB0E7064B01221A70002000F0A5
:1060B4008BF8A9E7C855002080550020B85500206A
:1060C400C0550020BC550020D0550020C4550020E8
:1060D400A855002010B584B004AB03E907009DF86F
:1060E4000400032864D8DFE800F0070257600120A9
:1060F400FFF782FF04B010BD0298039903291AD94F
:10610400437813F00F0204D00E2A14D1FFF70CFFCA
:10611400F0E70278134481780B44C1780B4413F000
:10612400FF0F08D1C2F3C202234B1B78013303F0E3
:1061340007039A420BD0214B186878B14FF41671BB
:10614400FFF78AFE0028D5D000F008FFD2E71C4BE9
:1061540000221A700320FFF74FFFECE717494FF4B2
:106164001670FFF70BFC044608B104280CD17CB967
:10617400124B186874B94FF41671FFF76DFE0028BE
:10618400B8D000F0EBFEB5E7002000F0E7FEEEE744
:106194000C48EFE70521F0E705210A48FFF75CFE0C
:1061A4000028A7D000F0DAFEA4E700F0D7FEA1E7AC
:1061B40000F0D4FE9EE700BFA8550020CC55002077
:1061C400C0550020AC55002008B5034B18700020C2
:1061D400FFF712FF08BD00BFC855002008B5022014
:1061E400FFF70AFF08BD000010B50446064B18600F
:1061F4000648FFF7E9FD10B924B1002010BD00F0F6
:10620400ADFEF9E70E20F9E7B4550020D960070088
:1062140008B50023164A1360164A1360164A136021
:10622400164A1370164A13700121164B1960164B47
:106234001960164B1970164A164800F09DFD90B966
:10624400FFF786FB80B9FFF7C5FD68B912494FF423
:106254001670FFF793FB40B94FF416710E4B186894
:10626400FFF7FAFD00E0032008BD0320FCE700BFB0
:10627400D0550020BC550020C4550020A055002056
:10628400C8550020A4550020A8550020C055002062
:10629400E1610700809E0700CC55002008B500236B
:1062A4000D4A13600D4A1360FFF766FB48B9FFF708
:1062B4009DFD48B90A4800F093FD042807D000204A
:1062C40008BD00F04BFEF2E700F048FEF2E70020C4
:1062D40000F044FEF3E700BFB8550020B455002099
:1062E40080550020C8B130B583B00C460546B1B125
:1062F400002301930B4B1B7813B9042003B030BD6A
:10630400084B00221A7001A9FFF7B2FB019B063B60
:1063140023802B6804332B60F0E70E2070470E2097
:10632400ECE700BFA055002008B50438FFF754FB84
:1063340008BD000030B4044612F0030012D14B1C17
:10634400DB009BB2084D2A601A44084B1A600023F4
:10635400074A1370074A1370074B1C80074B1980B8
:1063640030BC70470720FBE7DC550020D8550020DF
:10637400D4550020E4550020E0550020E2550020CB
:106384002D4B1B888B4201D2092070472DE9F04127
:1063940082B005460C46164600238DF807300DF1F1
:1063A400070000F0EBFD254B1A78D2B2244B197884
:1063B400CBB224480088814224D20133DBB29A4212
:1063C40024D01F4B1F781A78D3B290421CD90133C2
:1063D400DBB21B4A13709DF8070000F0FBFD4FF67B
:1063E400FF739F4226D04FEAC708174B1B6803EB85
:1063F400C70243F8376005B15CB90020908002B051
:10640400BDE8F0810023DAE70023E2E74FF6FF77E7
:10641400E1E70E4B1B68084A10882246294607FB11
:10642400003003F087FC084B1B689844A8F804402C
:106434000020E4E70420E2E7E0550020E4550020D2
:10644400D4550020E2550020DC550020D85500200A
:1064540038B502E00023124A1370114B1A78D2B2F5
:10646400104B1B78DBB29A4218D00D4C23780E4A9D
:1064740010680E4A15880E4A126802EBC30152F8DE
:106484003320898803FB050090472278D3B2094959
:1064940009888A42DED20133DBB2DCE738BD00BFB3
:1064A400E4550020D4550020D8550020E0550020A4
:1064B400DC550020E2550020034BC3F80805034BCC
:1064C400E02283F8112370470010014000E100E04E
:1064D40010B4114B1C685CB1026823689A4218D846
:1064E4009A1A2260C4610C4B18605DF8044B704723
:1064F4001860FAE7521A1C46DB6913B11968914215
:10650400F8D313B11968891A19600260C361E06194
:10651400EBE72346F1E700BF08570020364B196824
:106524000B460A4623B1834202D01A46DB69F9E7D7
:10653400002B5ED030B49A420DD01868DB69D36169
:1065440013B11A6802441A602B4B1868401A18BF1A
:10655400012030BC7047C869274C20600028ECD16A
:106564000120264CA060264C00252560254C207077
:10657400254804682F20254D00BF00BF00BF00BF81
:1065840000BF00BF00BF00BFAC422FD000BF00BFA0
:1065940000BF00BF00BF00BF00BF00BF00BF00BFFF
:1065A40000BF00BF00BF00BF00BF00BF00BF00BFEF
:1065B40000BF00BF00BF00BF00BF00BF00BF00BFDF
:1065C40000BF00BF00BF00BF00BF00BF00BF00BFCF
:1065D40000BF00BF00BF00BF00BF00BF00BF00BFBF
:1065E40000BF00BF00BF00BF00BF00BF0138C3D160
:1065F400A3E70020704700BF0857002000100140A7
:1066040004570020F4560020203000200024F40019
:10661400024B4FF40032C3F80021704700E100E060
:10662400024B4FF48012C3F80021704700E100E0F0
:10663400104B1B78104A1278934217D00133DBB207
:106644000C4A1370022B0DD00A4B1A780B4B53F8DB
:10665400223003600A4A11680B4423F07F4313601D
:1066640001207047134600221A70EDE700230360EF
:10667400184670470057002001570020F8560020A4
:106684000457002070B400250E4B1B68BBB11C6876
:10669400844212D8001B254400241C60DE69094C86
:1066A4002660DC68002CEFD06E1826F07F465E6012
:1066B4009C601468DC611360E6E7241A1C6070BCFB
:1066C400704700BF08570020F8B50546404B1F68C7
:1066D400002658E03F4A11784B1CDBB213709278C5
:1066E400934227D001EB41033A4A02EBC3039C686F
:1066F4001B79022B22D0032B2FD0012B43D1237CD7
:10670400002B40D1334A01EB410302EBC303D868A9
:1067140060601869A0605B69E36001EB410102EB12
:10672400C1018B69A3612C4B1B78002B30D0002353
:1067340063602DE0274B00221A70D3E72046FFF751
:10674400EDFE034600B93346002222741E461AE0C9
:1067540000221A74DA691E4B1A601D4B1B68002B49
:10676400F6D110E0521A22F07F42A36893421CD95A
:106774009A1A226000236360A36001222274E361F9
:106784002046FFF7A5FE9DB1002DA3D02C46ED6950
:106794006168124B1A688B1A23F07F4310488342B6
:1067A400E0D8A26813442360E4E700232360E1E710
:1067B400084B1A785B789A42E6D12EB9044B1B68D1
:1067C400BB4203D0012000E00120F8BD0020FCE71B
:1067D40008570020E8550020F456002004570020F4
:1067E400FEFF7F00014B5870704700BFE855002042
:1067F4000B4A53780133DBB292789A420CD0084AA0
:1068040012789A420AD003700548437803EB430395
:1068140000EBC300043070470023F0E7002070470A
:10682400E855002000B583B0436900938369019360
:10683400054A08216846FFF7A3FD10B903B05DF8C7
:1068440004FB00F08BFBF9E7D96807001B4B1868C1
:10685400002832D070B51A4BD3F80445194B1B6885
:10686400E41A24F07F44002504E000230374FFF7B6
:10687400D9FF304648B10368A34206D8E41A1D4440
:10688400C669037C002BF4D0EFE70F4B1A780F4B4B
:106894001B789A4207D00D4B1A780D4B43F82250BF
:1068A400FFF7BEFE70BD0133DBB2084A1370022B42
:1068B400F1D1134600221A70EDE770470857002003
:1068C4000010014004570020005700200157002009
:1068D400F856002010B50446082903D123686068DF
:1068E400984710BD002000F039FBF7E72DE9F0418F
:1068F40082B007460E4690461D4600248DF8064099
:106904000DF1060000F03AFB0DF10700FFF770FFF0
:10691400C0B10123037047600D4BD3F80435836085
:10692400C660C0F8108045619DF80700FFF75AFF64
:1069340000249DF8060000F04DFB2CB1204602B067
:10694400BDE8F0810424F4E7FFF76AFEF6E700BF30
:106954000010014030B583B004460D4600238DF885
:1069640006300DF1060000F009FB0DF10700FFF7FA
:106974003FFF70B1057044609DF80700FFF732FFD8
:1069840000249DF8060000F025FB24B1204603B046
:1069940030BD0424F5E7FFF743FEF7E7284B4FF437
:1069A4008032C3F84423C3F80423264A4FF4003149
:1069B400C2F88011116001221A60234B19682F2339
:1069C400224800BF00BF00BF00BF00BF00BF00BF20
:1069D40000BF81422FD000BF00BF00BF00BF00BF77
:1069E40000BF00BF00BF00BF00BF00BF00BF00BFAB
:1069F40000BF00BF00BF00BF00BF00BF00BF00BF9B
:106A040000BF00BF00BF00BF00BF00BF00BF00BF8A
:106A140000BF00BF00BF00BF00BF00BF00BF00BF7A
:106A240000BF00BF00BF00BF00BF00BF00BF00BF6A
:106A340000BF00BF00BF013BC3D1054B1A707047B4
:106A44000010014000E100E0203000200024F400A8
:106A5400F556002070B44B4B4FF40032C3F880203D
:106A640002F18042A2F570424FF48033C2F84833F9
:106A7400C2F80833012454604348066843492F236D
:106A84001D4600BF00BF00BF00BF00BF00BF00BF66
:106A940000BF8E422FD000BF00BF00BF00BF00BFA9
:106AA40000BF00BF00BF00BF00BF00BF00BF00BFEA
:106AB40000BF00BF00BF00BF00BF00BF00BF00BFDA
:106AC40000BF00BF00BF00BF00BF00BF00BF00BFCA
:106AD40000BF00BF00BF00BF00BF00BF00BF00BFBA
:106AE40000BF00BF00BF00BF00BF00BF00BF00BFAA
:106AF40000BF00BF00BF013DC3D194600022244CFD
:106B04002260006800BF00BF00BF00BF00BF00BF1D
:106B140000BF00BF88422FD000BF00BF00BF00BF2E
:106B240000BF00BF00BF00BF00BF00BF00BF00BF69
:106B340000BF00BF00BF00BF00BF00BF00BF00BF59
:106B440000BF00BF00BF00BF00BF00BF00BF00BF49
:106B540000BF00BF00BF00BF00BF00BF00BF00BF39
:106B640000BF00BF00BF00BF00BF00BF00BF00BF29
:106B740000BF00BF00BF00BF013BC3D1054B1A706B
:106B840070BC704700E100E0203000200024F400D5
:106B940004570020F5560020F8B53A4B1B68002B2B
:106BA4006CD01F68384BD3F80455384B1C682E1B27
:106BB40026F07F460336364B1B78A3B1B7422CBF71
:106BC400E419A41924F07F442F4BC3F84045D3F8AB
:106BD40004355B1B23F07F430333641B24F07F44A1
:106BE400A34203D8F8BDFFF7D9FEE7E7264BD3F855
:106BF4000425C3F84025274B1A682F23264900BFD4
:106C040000BF00BF00BF00BF00BF00BF00BF8A427B
:106C14002FD000BF00BF00BF00BF00BF00BF00BF38
:106C240000BF00BF00BF00BF00BF00BF00BF00BF68
:106C340000BF00BF00BF00BF00BF00BF00BF00BF58
:106C440000BF00BF00BF00BF00BF00BF00BF00BF48
:106C540000BF00BF00BF00BF00BF00BF00BF00BF38
:106C640000BF00BF00BF00BF00BF00BF00BF00BF28
:106C740000BF013BC3D1FFF7CBFCB3E7FFF7EAFE4C
:106C8400B0E700BF0857002000100140045700205F
:106C9400F5560020203000200024F40070B582B0A6
:106CA400002301930D4B1E680D4B1D686846FFF7CA
:106CB400BFFC044660B90198FFF706FD00B914B1A2
:106CC4002846FFF769FF074B00221A7002B070BD17
:106CD40001AA31460098FFF7D5FCECE704570020E1
:106CE40008570020F456002008B5084B0022C3F8CA
:106CF4004021C3F84421C3F84821C3F84C21C3F808
:106D04000021C3F80421FFF7A1FD08BD00100140D4
:106D140008B5FFF7C3FF08BD10B5FFF79BFE0F4B87
:106D240000241C705C700B229A700D4B1C600D4B80
:106D34001C700D4B1C700D4B4FF48012C3F8802156
:106D4400E02183F814131A602046FFF7B5FB084BC3
:106D5400D3F80425074B1A60204610BDE8550020DF
:106D640008570020005700200157002000E100E0F0
:106D74000010014004570020094B9B7843B14AB1ED
:106D840050B10368187C48B9187459745A61704733
:106D94000820704707207047072070470820704775
:106DA400E855002008B513460C4A92786AB170B1D0
:106DB40004290ED9426972B1427C012A03D000220F
:106DC400FFF794FD08BD0A46FAE70820FAE7082011
:106DD400F8E70720F6E70820F4E700BFE8550020AD
:106DE40008B5094B9B7843B148B143694BB10023C3
:106DF40003740221FFF7AEFD08BD0820FCE708205C
:106E0400FAE70820F8E700BFE855002000B583B092
:106E14000378012B0CD0022B1ED033B903238DF839
:106E24000030144B1B686846984703B05DF804FBB8
:106E340004238DF8003043681B788DF80430012258
:106E44000D490E48FEF770FA0D4B01221A70094BDA
:106E54001B6868469847E8E78DF80030C3680193DB
:106E6400012205490548FEF75FFA024B1B68684694
:106E74009847DAE70C570020105700201030002004
:106E840011570020F0B589B0064617469C466C465B
:106E94001E4D0FCD0FC495E80F0084E80F007369F1
:106EA4000693337C003B18BF01238DF814308DF812
:106EB4001CC0737C1BB30E238DF81530F36802934A
:106EC400B36803933368019373680093104B1F6096
:106ED400104B00221A70104A69461048FDF78CFFC7
:106EE40058B93368B3F1FF3F07D09DF81D3043B163
:106EF40001220B490948FEF717FA09B0F0BD002337
:106F0400DAE70648FEF730FBF2E700BF849E07008D
:106F14000C57002011570020116E0700103000207C
:106F24001057002008B50749087001220648FEF7EB
:106F34002FF9112803D000B908BD0320FCE7042071
:106F4400FAE700BF145700201030002008B50248AB
:106F5400FEF76AF8002008BD1030002000B585B0A7
:106F64000021ADF804100291039001AA44F201003B
:106F7400FDF7A4FA05B05DF804FB0000EFF31082FE
:106F840072B6114B9B68C3B930B40F4901238B60AF
:106F94000E4BD3F880400E4D2C400C60C3F880504B
:106FA400D3F884404C604FF0FF31C3F884100023C1
:106FB400037002B962B630BC7047012303700AB98A
:106FC40062B67047704700BF1857002000E100E028
:106FD400FC06FFBD084B9B686BB160B9EFF31081F1
:106FE40072B6054B1868054A106058685060002254
:106FF4009A6001B962B670471857002000E100E0BA
:10700400A8DF7047AADF7047ADDF7047AEDF704777
:10701400B0DF704762DF70478B8803807047CA888F
:1070240003899A4200D0704700B585B008238DF8D3
:1070340004300B8A8DF80C3012310291836A01A955
:10704400984705B05DF804FB4FF6FF730380704763
:1070540030B58FB005461C2200210DEB020002F072
:1070640092FE9DF81C3043F004038DF81C3000247C
:1070740008940A940B940C940D94AB798DF8063013
:1070840041F23253ADF8043003222146684602F03F
:107094007AFE9DF8003003F0F00364F307138DF8D3
:1070A40000309DF80130012262F3030362F30713F9
:1070B4008DF801309DF8023062F3420303F0E703D8
:1070C40013438DF802301422214602A802F05BFE1D
:1070D40001AB0293CDF80CD0ADF81040ADF81240DE
:1070E4001423ADF81430069405F1080302AA07A985
:1070F400A888FFF787FF0FB030BD30B58FB00546C5
:107104001C2200210DEB020002F03DFE9DF81C3014
:1071140043F018038DF81C30002408940A940B944F
:107124000C940D94AB798DF8063041F23153ADF8DF
:10713400043003222146684602F025FE9DF8003003
:1071440003F0F00364F307138DF800309DF8013069
:10715400012262F3030362F307138DF801309DF8F3
:10716400023062F3420303F0F70343F011038DF896
:1071740002301422214602A802F005FE01AB02935C
:10718400CDF80CD0ADF81040ADF812401723ADF88F
:107194001430069405F1100302AA07A9A888FFF782
:1071A40031FF0FB030BD70B58EB005460E461C22BF
:1071B40000210DEB020002F0E6FD9DF81C3043F0C7
:1071C40002038DF81C30002408940A940B940C9448
:1071D4000D94AB798DF8063041F23453ADF8043098
:1071E40003222146684602F0CEFD9DF800300122BC
:1071F40062F3030362F307138DF800309DF8013046
:1072040003F0F00364F307138DF801309DF80230A6
:1072140062F3420303F0E70313438DF802301422B0
:10722400214602A802F0AFFD01AB0293CDF80CD0C9
:107234000223ADF81030ADF81240ADF814300696C4
:1072440005F1200302AA07A9A888FFF7DBFE0EB008
:1072540070BD10B584B004460822002101A802F0D4
:1072640092FD0223ADF804300023ADF8063003ABE1
:10727400029301AAA18A2088FFF7C6FE28B99DF8C7
:107284000C0000F0010004B010BDE26A02B19047A6
:107294000020F8E7002845D070B586B00C460646B5
:1072A400002942D04B68002B41D04FF6FF73038076
:1072B400204B01AD0FCB85E80F0041F23053ADF800
:1072C40014300DF116012846FFF7A4FE034610B151
:1072D400184606B070BD321D05A90120FFF790FEC7
:1072E40003460028F4D19DF81630B3713046FFF7F9
:1072F400AFFE03460028EBD13046FFF7FEFE0346FF
:107304000028E5D121463046FFF74DFF034600280B
:10731400DED16268B262A26802B1F262064A012159
:107324001170D5E70E23184670470E23D0E70E23BD
:10733400CEE700BFA49E07002457002090B370B589
:1073440086B0054602884FF6FF739A422CD0184B3C
:107354001B785BB3174C102222700723637001263D
:10736400A670E170C1F307202071C1F3074060717A
:10737400090EA171ADF80630002102A802F003FD48
:107384002B8AADF808308DF80A600023ADF80C3074
:107394000DF106030493059402A92888FFF736FE2D
:1073A40006B070BD0E2070470820F9E70820F7E703
:1073B400245700202857002088B330B587B00546ED
:1073C40002884FF6FF739A422BD0184B1B7853B3A5
:1073D400174C112323706170C1F30723A370C1F309
:1073E4000743E370090E21710523ADF8063010221E
:1073F400002102A802F0C7FC2B8AADF80830012353
:107404008DF80A300023ADF80C300DF10603049317
:10741400059402A92888FFF7F9FD07B030BD0E20B6
:1074240070470820F9E70820F7E700BF2457002039
:107434002857002050B330B587B0044600884FF673
:10744400FF73984224D0144B1B781BB3134D1023A5
:107454002B7069700321ADF80610AA701A4600213A
:1074640002A802F090FC238AADF8083001238DF8BD
:107474000A300023ADF80C300DF106030493059592
:1074840002A92088FFF7C2FD07B030BD0E20704767
:107494000820F9E70820F7E72457002028570020A0
:1074A40070B588B005460C4602238DF810309DF85F
:1074B400163043F001038DF816300B89ADF81830FF
:1074C4004B89ADF81A3001F10C030793FFF7C1FEA5
:1074D40098B10023ADF8143004A92888FFF798FD6B
:1074E400064698B9217B4B1E072B00F28380DFE808
:1074F40003F010263C444C54795C40F2FD13ADF883
:10750400143004A92888FFF783FD0646304608B0E6
:1075140070BD00238DF804306389012B09D9012340
:107524008DF80C300D340294AB6A01A928469847B3
:10753400ECE706222846FFF77DFF0646E6E701232F
:107544008DF804306389012B09D901238DF80C309F
:107554000D340294AB6A01A928469847D6E706225F
:107564002846FFF767FF0646D0E702238DF804306C
:10757400AB6A01A928469847C8E703238DF804306D
:10758400AB6A01A928469847C0E704238DF8043064
:10759400AB6A01A928469847B8E705238DF804305B
:1075A400AB6A01A928469847B0E76389022B0ED934
:1075B400637BA27B43EA0223ADF8083073B9072347
:1075C4008DF80430AB6A01A9284698479EE7032248
:1075D40008212846FFF72EFF064697E706238DF875
:1075E4000430EFE709238DF80430AB6A01A928467B
:1075F40098478BE703222846FFF71CFF064685E7DA
:107604008B79022B00D0704710B504460A89038A8F
:107614009A4200D010BD8B7B042BFBD0062BF9D0F3
:10762400052BF7D00831FFF73BFF0028F2D0E36ABF
:10763400002BEFD09847EDE7C8B1C1B108B5836A14
:107644008BB10B88502B0FD006D8102B09D0112BDF
:1076540009D1FFF7F9FC06E0512B04D1FFF7D0FF65
:1076640001E0FFF7D9FC08BDFFF7D9FCFBE7704741
:10767400A8DF7047AADF704738B504460D4699B1B4
:10768400B4B12B6823702B681B0A63706B88A370DA
:10769400EB78E3706B682371AB686371AB681B0AAA
:1076A400A3716B89E37138BD0020FFF757FCE7E74E
:1076B4000020FFF753FCE4E738B504460D4679B1E2
:1076C40094B12B7823706B8863701B0AA370AB880A
:1076D400E3701B0A2371EB8863711B0AA37138BD25
:1076E4000020FFF73BFCEBE70020FFF737FCE8E75F
:1076F4002DE9F0438FB0074615461E4688460029FB
:1077040048D0002D4AD01C22002106A802F03BFBE1
:107714009DF8183043F002038DF8183000240794C4
:1077240009940A940B940C944FF001098DF8369047
:10773400ADF8347003222146684602F024FB337806
:107744008DF8003073788DF801309DF8023069F3BC
:10775400420303F0E70364F300038DF802301422BC
:10776400214601A802F00FFB0DAB0193CDF808D020
:10777400ADF80C50ADF80E40ADF81050CDF81480B3
:10778400169B01AA06A907480088FFF773FF0FB0EC
:10779400BDE8F0830020FFF7E1FBB2E70020FFF72C
:1077A400DDFBB0E76857002030B587B00446012000
:1077B4008DF8160041F60A03ADF814304E4A05A9B7
:1077C400FFF756FF0546002840D12288002A40D101
:1077D4002289002A4AD1228A002A54D1228B002AE3
:1077E4005ED1228C002A68D1228D002A72D1216BAD
:1077F40071B103A8FFF740FF404B009304F13C0331
:10780400082203A942F62320FFF772FF00286ED155
:10781400636B5BB11A791968394B009304F13C032B
:1078240042F62A20FFF764FF002862D1A16B69B1F8
:1078340003A8FFF741FF334B009304F13C030722F5
:1078440003A942F65020FFF753FF0546284607B028
:1078540030BD2D4B009304F13C03616842F62920AE
:10786400FFF746FF0028B3D00546EFE7274B009308
:1078740004F13C03E16842F62420FFF739FF0028B5
:10788400A9D00546E2E7224B009304F13C03616969
:1078940042F62520FFF72CFF00289FD00546D5E7A8
:1078A4001C4B009304F13C03E16942F62720FFF7E7
:1078B4001FFF002895D00546C8E7174B009304F135
:1078C4003C03616A42F62620FFF712FF00288BD0A2
:1078D4000546BBE7114B009304F13C03E16A42F611
:1078E4002820FFF705FF002881D00546AEE70546AE
:1078F400ACE70546AAE700BF68570020745700208C
:107904005857002050570020405700204857002067
:107914006057002038570020305700206C57002053
:1079240029DF704728DF704710B4084900EB400393
:1079340001EBC30300221A719A6004241C615A618A
:107944009A61DA605DF8044B704700BF8C570020E1
:1079540010B50024064B1C60064B1C705C709C70B8
:10796400092C04D82046FFF7DFFF0134F8E710BDE7
:10797400845800208C57002020B582B00246084667
:10798400C968054B53F82150436800934369017853
:107994000C30A84702B020BD7C57002070B5204BA6
:1079A4001C7804EB440203EBC20358691B79012BD6
:1079B40003D0032B22D00F2070BD194D04EB4402D9
:1079C40005EBC2029169174B1E689268A2EB06325E
:1079D40001EB063104EB440405EBC404E36803EB58
:1079E40006331844B2F5805F03D29208FFF798FF7C
:1079F4000FE04FF48062FFF793FF0AE04FF08053EB
:107A04001B699BB2B0FBF3F0064B1B681844FFF7ED
:107A140089FF0028D0D1024B01229A70CCE700BF25
:107A24008C5700208458002008B5084B5B785BB164
:107A3400064B9B780BB1002007E0FFF7AFFF20B1A6
:107A4400112802D1002000E0002008BD8C5700203E
:107A540070B5154C64780A2C24D0134D2D782C4421
:107A6400E4B2092C01D90A3CE4B20F4E04EB4405FC
:107A740006EBC5052871AA6105F1100203C982E865
:107A84000300AB60049BEB60B3782BB10020064A83
:107A940053780133537070BDFFF780FF1128F6D17E
:107AA4000020F4E70420F6E78C570020274B9B784E
:107AB400002B49D010B5254B00229A70022802D021
:107AC400032836D010BD214A147821490B680133AC
:107AD4000B6004EB440102EBC1029268B2EB033F7A
:107AE40019D81B4B00221A60184A5378013B537073
:107AF400631CDBB21370092B01D90A3B137004EB2E
:107B04004403124901EBC30104310020FFF734FFA1
:107B14002046FFF709FFFFF787FF0028D2D00B4963
:107B24000B7803EB430301EBC3010431FFF724FF9C
:107B3400C8E706490B7803EB430301EBC3010431A7
:107B44000D20FFF719FFBDE7704700BF8C570020D9
:107B54008458002008B5FFF7FBFE0023064A136093
:107B6400064A136004E0064A002142F82310013358
:107B7400032BF8D9002008BD805800208458002029
:107B84007C5700200346064A1068042807D0086082
:107B9400411C11601A68034B43F8202000207047F1
:107BA400805800207C57002011F0030F0ED110B52F
:107BB40082B0CC1814F0030F0AD1009313460A467E
:107BC40001460120FFF744FF02B010BD10207047AA
:107BD4001020F9E700B583B00B460022009201465D
:107BE4000320FFF735FF03B05DF804FB11DF704796
:107BF40013DF7047104B1868002303E05DF8044B53
:107C040070470133262B16D801229A400242F8D03D
:107C140010B45AB203F01F0452090121A1402032CA
:107C2400054C44F822100133262BE7D801229A4050
:107C34000242F8D0EDE7704700E100E008B51046D5
:107C4400074B1B78012B01D030B908BD0129FBD1AA
:107C5400034B02221A70F7E7FFF780F9F5E700BF3C
:107C6400B458002010B582B00446FCF733FC88B148
:107C74001C211248FFF7AEFF48B900231C222146FD
:107C84000E48FFF791FFB8B1FFF768F914E0FFF76A
:107C940065F9F2E74FF4FE2001F04AFD0722214680
:107CA4004FF4FE2001F060FD1C23009323460022C4
:107CB40001210248FFF7C2FF02B010BDAC580020FA
:107CC40008B511E003F5C0710B4A0C4842F82100D5
:107CD4000133DBB2072BF5D9FEF7BAFB084B1B784F
:107CE400023BDBB2022B06D9034BD3F80034002B42
:107CF400F2D00023EEE708BD000001403546526E85
:107D0400B45800200368B3F1FF3F1ED000B583B020
:107D140001A800F09DF9019B1A88012A03D00020D4
:107D240003B05DF804FB5A8832B9019B588890422D
:107D340014BF00200120F3E70022996843F20803EE
:107D44001868FDF7E3FD0246EFE7002070470000E6
:107D540084B010B582B004AC84E80F0001A800F030
:107D640077F99DF810307BB1012B20D0032B37D04D
:107D7400022B4BD0052B67D0042B75D0062B11D1C9
:107D84003F4B04221A700DE0BDF812303D48438089
:107D9400079B836001230380FF228280384A13708B
:107DA400FFF760FF02B0BDE8104004B07047BDF8B3
:107DB400123034484380059C06996318079A13448B
:107DC4008360A5230380FF238380C4600161426133
:107DD400089B83612A4B01221A70FFF743FFE1E7F6
:107DE400019B1A88274802805A8842809B688360D6
:107DF400AA238380059BC360069B0361079B4361A1
:107E04001F4B01221A70FFF72DFFCBE7019B1A8845
:107E1400A52A12D01B490A805A884A809B688B6025
:107E24001848FF2383800023C36003614361144B1C
:107E340001221A70FFF716FFB4E7124B00225A8092
:107E44009A60FF221A80EBE7FCF744FB30B100F0A4
:107E540047FE30B90A4B03221A70A3E701F012F867
:107E6400F7E7FFF77BF8F5E70648002343808360D4
:107E7400FF230380019B9B888380FFF7F3FE91E738
:107E8400B4580020B8580020084B1B7803B1704741
:107E940000B589B005238DF80C30079B009303AB24
:107EA4000FCBFFF755FF09B05DF804FBA85800207D
:107EB40000B585B0002302930393084B0193FFF7A9
:107EC40049FE10B105B05DF804FB05494FF4FE23EB
:107ED4004B6001A8FFF756FEF4E700BF417C0700A2
:107EE400AC58002070B506460D4601F023F904464F
:107EF40030B93EB955B900F0ABFF0446FFF7E0FED8
:107F0400204670BD00F0ACFD0446F7E700240B4B9F
:107F14001C700B4A21460B48FEF72EFF690CE80340
:107F24004FF47A72002310F5FA70614101F068FE93
:107F3400014622460448FEF735FFDCE7A858002036
:107F44008D7E0700B49E07008858002008B5FFF70F
:107F54004DFE68B9FFF74EFE43F208031868FFF7B9
:107F640047FE40B943F20803186800F077F808BDEB
:107F7400FEF7F4FFEEE7FEF7F1FFF3E700B583B099
:107F840001A800F065F8019B1A88A52A06D09B88F1
:107F9400AA2B05D0002003B05DF804FB0120FAE70A
:107FA4000120F8E710B501F007FB80B10F48104B32
:107FB40043F00103984701F08BFA70B901F0FCFA21
:107FC40070B901F0C0FA044668B9204610BD01F04A
:107FD400D5FA04460028E9D1F7E7FEF7BFFFEDE73D
:107FE400FEF7BCFFEDE7FEF7B9FFEEE700A861007E
:107FF400C09E070010B588B003AB0024039404941A
:108004000594069402228DF80C2000940FCBFFF700
:108014009FFEFFF755FE204608B010BD10B582B094
:10802400044601A800F014F8019B1A8822805A889B
:1080340062809A68A2609A88A280DA68E2601A690B
:1080440022615A6962619B69A36102B010BD00009C
:10805400014B0360704700BF00F00700F0B4034613
:10806400186880F308885868FF2464B2EFF3058524
:10807400002D01D1A64600472546064621273FBAD2
:10808400F0B40024002500260027F0B4F92040B203
:10809400004700BFF0BC70476CDF70476DDF70476E
:1080A4006EDF70476FDF704772DF704773DF7047B2
:1080B40074DF704776DF704777DF70477ADF704789
:1080C4007CDF70477FDF704786DF70478FDF704744
:1080D40090DF7047AFDF7047B0DF7047B1DF7047A4
:1080E400B2DF7047B5DF704764DF704766DF704703
:1080F40010B51A4B18884FF6FF7398422BD0184BC3
:108104001B7803B3012308221649FFF7E7FF04464F
:10811400F8B902230022114610480088FFF7DEFF59
:108124000446B0B94FF6FF720C210C4B1888FFF7C8
:10813400D1FF43F2020398420BD0082809D011283A
:1081440007D0044605E000231A461946FFF7C6FF88
:108154000446204610BD0824FBE700BF1A30002067
:1081640040590020385900200C2812D8DFE800F0CC
:1081740007111111111109111311110D0B00012017
:1081840070470320704704207047042905D0062057
:108194007047062070470220704705207047000092
:1081A400074A137803F0F003032161F306136FF316
:1081B400C71313700723537010239370704700BFC5
:1081C4008859002008B5FEF7C9FE08BD08B5084B5C
:1081D4001B7803B908BD074B1878FFF769FF18B976
:1081E400034B00221A70F5E7FEF7B8FEF8E700BF6C
:1081F400785900201830002010B584B09DF8043060
:10820400012262F3030362F307138DF80430144C64
:10821400204601F0EBFD82B2214601A8FFF750FF92
:10822400C0B9082200210DEB020001F0ACFD0823C7
:10823400ADF808301823ADF80A300023ADF80C303F
:108244004FF4C873ADF80E3002A8FFF737FF20B91A
:1082540004B010BDFEF782FEE3E7FEF77FFEF7E70A
:10826400C89E070038B504460D46084601F0BEFD19
:108274002080656038BDF8B50E4611461C468388DB
:10828400E2181D2A00DDF8BD05460268D018671CF7
:10829400D75446702246023001F04CFDAB881C4492
:1082A4000234AC80EFE7000030B589B004468DF8A5
:1082B400071041F23053ADF80830114B9B798DF81B
:1082C4000A3003AA0DF11F0102A8FFF70DFF0123D5
:1082D4000DF1070219462046FFF7CDFF094D284648
:1082E40001F084FDC3B22A4609212046FFF7C3FFEB
:1082F400102303AA06212046FFF7BDFF09B030BDB5
:1083040044590020C89E07003E4B1B7803B17047B8
:1083140030B591B03C4C10220021204601F033FDD1
:108324003A4B236000230A930B930D930E930F9300
:1083340001238DF8283028230C93354B1B78FBB987
:108344000621314C2046FFF7AFFF0AAA21463148E7
:10835400FFF7AAFE00284BD104222E4B19780120E6
:10836400FFF7AAFE002846D101212A4B1878FFF70F
:108374009DFE002842D1234B01221A7011B030BD5A
:10838400254B6C460FCB84E80F001022214623486E
:1083940001F09DFC08B90621D3E72148214B036075
:1083A4000121FFF77DFEE8B91E4D04AC2B4653F8BE
:1083B400070F59689A68DB680FC495E803000890B2
:1083C400ADF82410090C8DF82610174804AB03608F
:1083D40001220021FFF766FE38B903238DF83C30F3
:1083E4000421AEE7FEF7BAFDDEE7FEF7B7FDF4E7DA
:1083F400FEF7B4FDB0E7FEF7B1FDB5E7FEF7AEFD5D
:10840400B9E700BF78590020F4580020D458002060
:108414004059002018300020EC9E07000B59002022
:1084240090590020045900207459002030B5B5B08B
:108434000388013B552B5DD8DFE813F0CE005C00C8
:108444005C005C005C005C005C005C005C005C0048
:108454005C005C005C005C005C0056005E005C003C
:108464007A00FA005C005C005C005C005C000D01BA
:108474005C005C005C005C005C005C0021015C0052
:1084840015015C005C00B0005C005C005C005C00FA
:108494005C005C005C005C005C005C005C005C00F8
:1084A4005C005C005C005C005C005C005C005C00E8
:1084B4005C005C005C005C005C005C005C005C00D8
:1084C4005C005C005C005C005C005C005C005C00C8
:1084D4005C005C005C005C005C005C00D8000D018A
:1084E4005C005C002C01A3008288714B1A80714BE4
:1084F40000221A7035B030BD8023ADF824306E4BA5
:1085040032221A60012309AA10A969480088FFF7DA
:10851400E7FD38B9694B1B783BB1654B4FF6FF72E9
:108524001A80E7E7FEF71AFDF4E7FFF7EDFEF4E73C
:10853400634C94E803000790ADF82010090C8DF803
:10854400221003AD234653F8070F59689A68DB6875
:108554000FC509AD18340FCC0FC594E8070085E8A2
:10856400070003AB159309AB149310AB554A85214F
:108574004F480088FFF7A6FD0028BBD0FEF7EEFCAD
:10858400B8E78379002BB5D11321494B1888FFF73D
:1085940091FD0028AED0FEF7E1FCABE7037A012B96
:1085A400A8D1444B00221A70434A1368013B13605C
:1085B4007BB910AB00221092119212921392149272
:1085C40005228DF84020002200920FCBFFF7C0FB5C
:1085D40090E7FFF799FE8DE70021354B1888FFF7E8
:1085E40085FD002886D0FEF7B9FC83E78379002B4C
:1085F40080D0827B042A04D0062A02D0052A7FF484
:1086040079AF022B11D001238DF8C0304FF4C17320
:10861400ADF8C43030A9264B1888FFF75DFD00285B
:108624003FF468AFFEF79AFC64E78DF8C030EDE7DD
:10863400028A234B5B8D9A420BD000210023224AED
:108644008088FFF741FD00283FF454AFFEF786FC15
:1086540050E71E49F2E7FFF74BFD00283FF44AAF0D
:10866400FEF77CFC46E700221146114B1888FFF701
:108674002FFD00283FF43EAFFEF770FC3AE70023DD
:108684008DF840308DF8413010A9094B1888FFF758
:108694001DFD2FE7C188F72928BFF721044B18884F
:1086A400FFF720FD00283FF425AFFEF757FC21E734
:1086B4001A300020785900201C3000208D590020E9
:1086C40004590020885900200B5900201C5900200F
:1086D40010B503460846032B24D01446042B2AD194
:1086E40061B1174B18884FF6FF73984223D01321BA
:1086F400FFF7E0FCF8B1FEF731FC1CE01046FDF793
:108704006BF960B90F4B1B68A34214D101220321FA
:108714000D48FEF78FFE70B1FEF720FC0BE0FEF76C
:108724001DFCEFE70121FFF71FFD0246012106486A
:10873400FEF780FE00B910BDFEF710FCFBE700BF9A
:108744001A300020945900204459002010B50446E2
:1087540008460321FFF708FD024603212046FEF7E1
:1087640069FE00B910BDFEF7F9FBFBE700B595B053
:108774000C22002111A801F006FB0823ADF84430B7
:10878400194B1293194B139311A91948FEF782FD43
:1087940038BB4022002101A801F0F5FA154901A8CF
:1087A400FFF760FD144903A8FFF75CFD134909A80E
:1087B400FFF758FD9DF84030012262F3030362F392
:1087C40007138DF840309DF8413003F0F0036FF348
:1087D40007138DF8413001A8FEF7E6FF15B05DF8E8
:1087E40004FBFEF7BBFBD4E7198B0700C981070024
:1087F40044590020D09E0700D89E0700E49E07003D
:1088040010B588B0044604AA002304930593069384
:108814000793264800788DF81000039303230193EF
:1088240002920B7A0C2B0AD0032201212046FEF778
:1088340001FE08B908B010BDFEF790FBFAE74B68DB
:108844001A78597842EA0122997842EA0142D978A1
:1088540042EA016205921A79597942EA0122997928
:1088640042EA0142D97942EA016206921A7A597AB5
:1088740042EA0122997A42EA0142DB7A42EA03633C
:10888400079301A800F0A4FC034628B9002BD1D01B
:108894001846FEF763FBCDE70121FFF765FC0246AE
:1088A40001212046FEF7C6FD0346EFE78E5900205E
:1088B400F0B585B007460B7A13F003000CD0C0F175
:1088C40004000022824206D24D685C1C0026EE544D
:1088D4000132E3B2F6E70B72012301934B68039371
:1088E4000B7A9B08029301A800F06AFD08B905B051
:1088F400F0BD0221FFF738FC024602213846FEF79C
:1089040099FD0028F3D0FEF729FBF0E770B584B099
:108914000546087A10F0030F2FD10C46039039490D
:10892400FDF72CF80146002832D1039A6168354BD3
:10893400186801F0FFF90398FDF78AF8014658BB5F
:1089440003A93048FDF794F8014648BB042300937B
:10895400039B9B0801932B4B1B680293684600F012
:10896400A5FC064600BB217A274A13680B44136012
:10897400244B1A68254B1A6005E003221146284649
:10898400FEF758FD08B904B070BDFEF7E7FAFAE740
:108994002846FFF7DBFEF6E72846FFF7D7FEF2E7A7
:1089A4002846FFF7D3FEEEE709281BD1217A164BA0
:1089B4001A6811441960164B1B78002BE3D0154A32
:1089C4001388013B9BB21380002BDCD12846FEF7B1
:1089D400F3FC20B9104B1A880E4B1A80D3E7FEF72C
:1089E400BDFAF7E7074B1868FCF7F6FF014620B914
:1089F40031462846FFF7AAFEC5E72846FFF7A6FE3C
:108A0400F6E700BF985900207C59002094590020B3
:108A140084590020825900208059002008B5094B50
:108A24001B78022B07D0032B08D0012B00D008BDE4
:108A3400FFF7E6FEFBE7FFF73BFFF8E7FFF766FF0C
:108A4400F5E700BF8559002010B5044601460348E8
:108A5400FEF7F2FD2046FFF7E9FC10BD4459002063
:108A640010B582B00023194A1370194A13701948BB
:108A740000F0A8FBFCF76CFF044610B1204602B0DE
:108A840010BD1548FBF7D0FC58B9144B01221A70DD
:108A9400FFF7B2FBFFF76AFEFFF782FBFFF734FC38
:108AA400ECE76846FFF7FAFA60B99DF80130013344
:108AB4008DF801306846FFF7EFFA0028E8D0FEF79A
:108AC4004DFAE5E7FEF74AFAEFE700BF8D590020BB
:108AD40085590020D58607000459002040590020FC
:108AE40008B50A4B01221A70094B18884FF6FF7318
:108AF400984208D01321FFF7DDFA08B9002008BD19
:108B0400FEF72CFAFAE7FFF761FBF7E78D5900202F
:108B14001A30002038B505460C460B78092B25D8A9
:108B2400DFE803F028304605131F525B4A6100F06A
:108B34007DFC0421FFF718FB024604212846FEF7BA
:108B440079FC98B1FEF70AFA10E0FFF7C9FF28B9DB
:108B540000F098FC50B100F0ADFC07E0FEF7FEF920
:108B6400F6E7FFF7BDFF10B900F0A4FC38BDFEF72F
:108B7400F5F9F9E7204B01221A704B681A781F4B5C
:108B84001A70F3E71C4B02221A704B681B78012BF6
:108B9400ECD100F0EFFB0221FFF7E6FA02460221D6
:108BA4002846FEF747FC0028E0D0FEF7D7F9DDE7BA
:108BB400114B03221A70D9E70520FCF767F8214608
:108BC4002846FFF72BFFD1E70D4B01221A708B8843
:108BD4000C4A13800C4A1380C8E70023084A137018
:108BE400084A1380C2E7094B1968FEF7A7FB00285F
:108BF400BCD0FEF7B3F9B9E7855900208E5900209F
:108C04008459002080590020825900207C5900207A
:108C140010B4064B00EB4002940003EB82020021E7
:108C24001951916051605DF8044B70479C590020C4
:108C340010B50024054B83F8304003E0E0B2FFF7A1
:108C4400E7FF0134032CF9D910BD00BF9C59002063
:108C540011B330B404460D46114B93F83030DBB2F7
:108C6400032B1BD00023032B13D803EB43020C4923
:108C740051F8220008B10133F5E7237003EB4303F5
:108C840041F8235091F830300133DBB281F83030B1
:108C940000E0042030BC7047072070470420F9E747
:108CA4009C59002000B585B00023ADF80E30029326
:108CB4000DF10E0102A8FDF715FB034628B1029839
:108CC40000B10BBB05B05DF804FB029B19780DF1F4
:108CD4000700FFF7BDFF03460028F0D1BDF80E20C2
:108CE40092089DF80730013A0B4903EB430001EB6E
:108CF40080004260029A04328260084A00210846D9
:108D0400FDF73EFB0346DAE7FDF70EFB0028D9D05A
:108D1400FEF724F9D6E700BF9C590020958D070083
:108D240003281FD810B503460F4900EB400201EB9E
:108D34008202946800EB400251F8220000B910BD91
:108D440091F83020013AD2B281F830201846FFF76A
:108D54005FFF201FFDF7E8FA0028F0D0FEF7FEF8C9
:108D64000020ECE7072070479C59002010B5002430
:108D740003E0E0B2FFF7D4FF0134032CF9D910BDAE
:108D840001B9704708B50846FEF7E8F808BD0000C9
:108D94002D4B01221A702D4B93F83030002B51D0FB
:108DA40010B54DE000F082FAE0B2FFF7B9FF0028F9
:108DB4003ED10134032C3ED8244B04EB440203EB94
:108DC400820053F82230002BF3D0013B042BEBD864
:108DD40001A252F823F000BF0D8E0700AD8D0700ED
:108DE400F18D0700A98D0700258E070004EB4403CD
:108DF400164A02EB83039A685A6000F0E9F90028E6
:108E0400D2D0FEF7ABF8CFE700F0DAFA00F0B2FA0E
:108E140018B90520FBF73AFFC6E7FEF79FF8F8E715
:108E240000F004FB00F02EFB0620FBF72FFF10BD23
:108E3400FEF794F8BDE7054B93F83030002BF6D0DD
:108E44000024B7E7704700BFA85800209C590020B1
:108E540008B5FFF7EDFE094800F0B4F9FDF7D8F9BD
:108E640028B90748FDF7C0F920B9002008BDFEF76E
:108E740075F8F6E7FEF772F8F7E700BF858D07008F
:108E8400A98C070008B5FFF771FFFDF707FA08BDC5
:108E940018DF704700B585B0032300930190029159
:108EA400920803926846FFF7F3FF05B05DF804FBF0
:108EB40000B585B0012300930190029192080392BA
:108EC4006846FFF7E5FF05B05DF804FBF8B5064614
:108ED4000C4617461D46FFF7DDFF034688B1B4F57F
:108EE400805F07D92B462A46611B701BFFF7EEFFF4
:108EF400034630B93A4621463046FFF7D9FF0346C8
:108F040008B11846F8BD3A4621463046FFF7C2FF7D
:108F14000346F6E738B514461D46012903D0032954
:108F24000ED004BB38BD124B1B78052BF9D1114B65
:108F34001B68002BF5D02A46214604209847F0E709
:108F44000B4B1B78022BECD10B4B5B689847084BFF
:108F540003221A70074B1B68002BE2D02A462146D5
:108F640003209847DDE72046FDF7F8FFDAE700BF66
:108F7400D8590020D0590020FC59002000B589B0F0
:108F8400074B01221A7005238DF80C30079B0093C0
:108F940003AB0FCBFEF7DCFE09B05DF804FB00BFAA
:108FA400D959002000B589B003238DF80C300A4B41
:108FB4001B88ADF80E30094B5A6804929A680592E2
:108FC400DB680693079B009303AB0FCBFEF7C0FE51
:108FD400002009B05DF804FB085A0020545A002010
:108FE40000B589B001238DF80C300B4B1B88ADF80C
:108FF4000E3043F208031A68084B596804919968C3
:109004000591DB680693009203AB0FCBFEF7A0FE3D
:10901400002009B05DF804FB085A0020545A0020CF
:1090240000B589B003AB0022039204920592069224
:1090340004228DF80C20002200920FCBFEF788FE4C
:1090440009B05DF804FB000030B589B003AC14220C
:109054000021204600F097FE00258DF80C50084BA7
:109064001B88ADF80E30074BDB680693079B009313
:1090740094E80F00FEF76CFE284609B030BD00BF2F
:10908400085A0020545A002030B583B0164B174AB2
:109094001A60174B02221A70FBF71CFA40B9154BE1
:1090A4001B681D0BC3F30B0303B10135002410E04F
:1090B400104B19680D48FEF78DFD98B1FDF74EFF72
:1090C40010E043F20803186800EB043000F030FBB2
:1090D4000134A542F5D80022009213460321034827
:1090E400FFF718FF03B030BD6C5A0020645A00200B
:1090F400D85900200C5A002010B50C4B1B789BB992
:109104000B48FDF76DFE48B900224FF416010848DC
:10911400FDF748FE044620B9204610BDFDF71EFFAA
:10912400F2E7FDF71BFFF7E70824F5E7D95900201C
:10913400DC59002010B584B0002302930393184A2D
:109144000192184A1370184A1380184901A8FEF7AF
:1091540019FD044628B1164B00221A70204604B0AB
:1091640010BD43F208031A68104B5A60114A0021DB
:109174001148FDF701FE68B900224FF416010F48AB
:10918400FDF710FE48B90E4B00221A60084B01226D
:109194001A70E3E7FDF7E2FEEEE7FDF7DFFEF2E724
:1091A400198F0700505A0020085A0020645A0020E2
:1091B400D8590020818F0700FC9E0700DC5900204D
:1091C400D4590020014B1860704700BFD0590020CB
:1091D40010B543682C4C0FCB84E80F00227812F0B2
:1091E400040F02D012F0030F40D1274B5B6813F039
:1091F400030F3DD12449886810F0030F3BD1C9689F
:1092040011F0030F39D103440B4420490B60B0F52E
:10921400304F34D843F208010968C1F5DA218B4292
:109224002FD81B4B1B4919601B49596012F0010FC1
:1092340007D01A4A9A601A4B1B78012B0CD00824C9
:1092440017E012F0020F03D0114B164A9A60F2E7AE
:109254000F4B154A9A60EEE7FFF74EFF044640B9FC
:109264000B4B1B68094A1068984702E0062400E08B
:109274000624204610BD0624FBE70624F9E70C2447
:10928400F7E70C24F5E700BF545A00200C5A0020DD
:10929400FC5900208D90070025900700E58F0700FA
:1092A400D8590020A98F07004D900700F0B583B06E
:1092B40000284FD00446836813F0030F4CD1294B88
:1092C4001B78052B4AD142689600274B1B6803EB99
:1092D4008203264A1268934213D8FFF70DFF05460E
:1092E40000283CD1A468FBF7F5F880B11E4B1B683D
:1092F400324621461E480068FEF756FCD0B10546AA
:109304002DE0194B4FF0FF321A600C2527E043F291
:1093140008031F68144B186800233246214638445A
:10932400FBF722FD00962346002201211048006825
:10933400FFF7F0FD0C4B1A6816441E600B4B1B68BC
:109344009E4201D009250AE0FBF7C4F838B9FBF7BF
:10935400E7FC04E00E2502E0102500E0082528467D
:1093640003B0F0BDD8590020D45900200C5A002075
:109374006C5A002008B50D4B1B68ABB90C4B1B781D
:10938400042B01D0082008BD0A4B1A780A4B19781F
:109394000A48FBF7DDFA18B9054B05221A70F2E703
:1093A400054B00221A70EEE70820ECE7D4590020A0
:1093B400D8590020545A0020505A0020105A002036
:1093C40070B50546154B1B78032B04D0042B05D030
:1093D4000824204670BD114B04221A70104B1B68E0
:1093E400BBB9FFF789FE04460028F2D16B689E00E2
:1093F4000C4A107800EB8303402B0CD83246A96842
:10940400094B184400F096FC064B1A7832441A7043
:10941400DFE70824DDE70924DBE700BFD859002093
:10942400D4590020505A0020105A002008B5114B7E
:109434001B78052B01D0082008BD0F4B1A680F4B71
:109444001B689A4201D00820F6E70A4B06221A70DC
:10945400FFF752FE0028EFD1094B1B68074A116839
:109464005868FBF7BDFA0028E6D1024B07221A70B0
:10947400E2E700BFD8590020D45900200C5A00203C
:109484006C5A002008B5084B1B78072B01D0082024
:1094940008BD0648FDF7A4FC18B9054B9B6898471E
:1094A400F6E7FDF75BFDF8E7D8590020DC5900200A
:1094B400FC59002000B589B006238DF80C30079BB9
:1094C400009303AB0FCBFEF743FC09B05DF804FB3C
:1094D400F0B589B001A8FEF7A1FD049850B300F5DA
:1094E4008052079DAA4227D9A5F58054640824F424
:1094F4007F6424F00F044719660005EB440506F564
:10950400805643F208031B6898420DD904F5805035
:1095140004220146FFF7CCFC60B904224FF48051C9
:109524000846FFF7C5FC28B923467A1B314628466E
:10953400FFF7CCFC09B0F0BD02464FF48051284639
:10954400FFF7B6FCF6E700B58DB005A8FEF766FD9B
:10955400099810B90DB05DF804FB089B5BB943F2A0
:1095640008031B680022019202938008039001A85B
:10957400FFF78EFCEEE70B9A1344F3E700B58DB0CA
:1095840005A8FEF74BFD099810B90DB05DF804FB72
:10959400089B73B943F208031B68032201924FF43A
:1095A400E822029203938008049001A8FFF770FC5C
:1095B400EBE70B9A1344F0E730B58DB005A8FEF73E
:1095C4002DFD0898B8B100F580530B9CA34219D91E
:1095D400A4F580535B08021923F47F6323F00F037F
:1095E400590004EB430401F5805143F208052D684A
:1095F400A84202D90E200DB030BD121B2046FFF741
:1096040065FCF8E7032301934FF48053029303941A
:109614008008049001A8FFF73BFCECE710B584B088
:109624004FF08043D3F8044314F0040F0DD003F536
:1096340084731B682BB1174A0021116012680192D0
:10964400019A13B1144B1B68984714F0200F0DD0E6
:10965400124B1B682BB1114A00211160126802924F
:10966400029A1BB10E4B1B680020984714F0400F60
:109674000DD00C4B1B682BB10A4A002111601268F3
:109684000392039A1BB1064B1B680120984704B050
:1096940010BD00BF08010040705A002014010040B2
:1096A400745A0020180100404FF080531869704725
:1096B40010B50446FFF7F8FFB4FBF0F300FB1340CA
:1096C400B0FA80F0400910BD024B0022C3F8042513
:1096D400704700BF00E00140024B0122C3F804259B
:1096E400704700BF00E00140024B0222C3F804258A
:1096F400704700BF00E00140044BD3F8003413F07E
:10970400010FF9D00160BFF35F8F704700E00140A3
:10971400F8B507460E4615460024AC4207D256F863
:10972400241007EB8400FFF7E7FF0134F5E7F8BDE9
:1097340010B50446FFF7BCFF08B9084810BDFFF791
:10974400D3FF074BC3F80845054BD3F8003413F097
:10975400010FF9D0FFF7B8FF0248EFE70A00AD0B9D
:1097640000E001400000AD0B70B504460D461646FE
:10977400FFF7B2FF324629462046FFF7C9FFFFF73D
:10978400A3FF70BDBFF34F8F0549CA6802F4E062BE
:10979400044B1343CB60BFF34F8F00BFFDE700BF03
:1097A40000ED00E00400FA05064B1B68B3F1FF3F2F
:1097B40003D0062B04D000207047034B1B78F8E736
:1097C4000120704730010010E00F00F0094B1A78B7
:1097D40008331B68C3F30313062A01D00020704723
:1097E400033B002B04D8DFE803F00100012070479D
:1097F40000207047E00F00F0064B1B68B3F1FF3FF9
:1098040003D0062B04D000207047034B1B78F8E7E5
:109814000120704730010010E00F00F0094B1A7866
:1098240008331B68C3F30313062A01D000207047D2
:10983400033B002B04D8DFE803F00100012070474C
:1098440000207047E00F00F0064B1B68B3F1FF3FA8
:1098540003D0062B04D000207047034B1B78F8E795
:109864000120704730010010E00F00F0094B1A7816
:1098740008331B68C3F30313062A01D00020704782
:10988400033B002B04D8DFE803F0010001207047FC
:1098940000207047E00F00F0094B1A7808331B686A
:1098A400C3F30313062A01D000207047033B002BA7
:1098B40004D8DFE803F0010001207047002070475E
:1098C400E00F00F00F4B1A68B2F1FF3F05D00E4BCA
:1098D4001B68062A08D0002070470C4B1A780833FE
:1098E4001B68C3F30313F4E7052B07D008D8033B25
:1098F400012B01D8002070470120704701207047D8
:10990400012070473001001034010010E00F00F016
:10991400064B1B68B3F1FF3F03D0062B04D0002095
:109924007047034B1B78F8E70120704730010010A3
:10993400E00F00F0064B1B68B3F1FF3F03D0062B8A
:1099440004D000207047034B1B78F8E701207047D0
:1099540030010010E00F00F0084B1B68084A126841
:10996400062B01D000207047052A01D90120704739
:10997400032A01D2012070470020704730010010F3
:1099840034010010014B024A1A6070472030002055
:109994000090D00308B5FFF707FF28B1894B1B6877
:1099A400C3F30423884A1360FFF710FF10B1874BF9
:1099B400874A1A60FFF720FF28B1864B1B68C3F360
:1099C4004233854A1360FFF729FF20B1834AD368E5
:1099D40023F08073D360FFF737FF40B14FF080432B
:1099E4000022C3F80C21C3F81021C3F83825FFF76F
:1099F4003DFF10B17A4B03221A60FFF74DFF58B1B7
:109A0400784B05221A60783301221A60703B0022D9
:109A14001A60043B3F221A60FFF754FF002846D027
:109A24004FF08052D2F804146F4BC3F82015D2F8CB
:109A34000814C3F82415D2F80C14C3F82815D2F866
:109A44001014C3F82C15D2F81414C3F83015D2F836
:109A54001814C3F83415D2F81C14C3F84015D2F8FE
:109A64002014C3F84415D2F82414C3F84815D2F8C6
:109A74002814C3F84C15D2F82C14C3F85015D2F896
:109A84003014C3F85415D2F83414C3F86015D2F85E
:109A94003814C3F86415D2F83C14C3F86815D2F826
:109AA4004014C3F86C15D2F84424C3F87025FFF7AA
:109AB4002FFF28B14D4B1B6803F04F034C4A136032
:109AC400FFF738FF60B14FF08043D3F8003413F050
